:100000000C9453000C947B000C947B000C947B00AC
:100010000C947B000C947B000C947B000C947B0074
:100020000C947B000C947B000C947B000C947B0064
:100030000C947B000C947B000C947B000C947B0054
:100040000C9499060C947B000C9467060C94410662
:100050000C947B000C947B000C947B000C947B0034
:100060000C947B000C947B0000000000250028000D
:100070002B0000000000240027002A0004040404D0
:100080000404040402020202020203030303030342
:10009000010204081020408001020408102001021F
:1000A00004081020E30611241FBECFEFD8E0DEBF06
:1000B000CDBF11E0A0E0B1E0EEEFF2E102C00590AB
:1000C0000D92A833B107D9F725E0A8E3B1E001C04C
:1000D0001D92AA39B207E1F710E0C3E5D0E004C0F1
:1000E0002197FE010E946809C235D107C9F70E9415
:1000F0001F070C94F4080C940000FC01538D448DF0
:10010000252F30E0842F90E0821B930B541710F0C2
:10011000CF96089501970895FC01918D828D9817CF
:1001200061F0A28DAE0FBF2FB11D5D968C91928DA7
:100130009F5F9F73928F90E008958FEF9FEF0895D8
:10014000FC01918D828D981731F0828DE80FF11DA1
:10015000858D90E008958FEF9FEF0895FC01918DBC
:10016000228D892F90E0805C9F4F821B91098F73B5
:1001700099270895FC01A48DA80FB92FB11DA35A8A
:10018000BF4F2C91848D90E001968F739927848FB7
:10019000A689B7892C93A089B1898C9180648C93AE
:1001A000938D848D981306C00288F389E02D808199
:1001B0008F7D80830895EF92FF920F931F93CF93CB
:1001C000DF93EC01F62E81E0888F9B8D8C8D981348
:1001D00016C0E889F989808185FF11C0EE89FF8901
:1001E0006083E889F98980818064808381E090E080
:1001F000DF91CF911F910F91FF90EF9008950B8D9C
:1002000010E00F5F1F4F0F731127E02E8C8D8E11A2
:100210000CC00FB607FCFACFE889F989808185FF09
:10022000F5CFCE010E94BA00F1CFEB8DEC0FFD2F80
:10023000F11DE35AFF4FF0820B8FEA89FB89808121
:100240008062D3CFCF93DF93EC01888D8823B9F000
:10025000AA89BB89E889F9898C9185FD03C08081D1
:1002600086FD0DC00FB607FCF7CF8C9185FFF2CF4E
:10027000808185FFEDCFCE010E94BA00E9CFDF91EA
:10028000CF9108958DEF94E00E94AE0021E0892B7C
:1002900009F420E0822F089580E090E0892B29F076
:1002A0000E94420181110C940000089580E991E0C0
:1002B0000895AF92BF92CF92DF92EF92FF920F9389
:1002C0001F93CF93DF936C017B018B01040F151FEC
:1002D000EB015E01AE18BF08C017D10759F0699154
:1002E000D601ED91FC910190F081E02DC6010995B8
:1002F000892B79F7C501DF91CF911F910F91FF9065
:10030000EF90DF90CF90BF90AF9008953FB7F894F3
:1003100080913B0190913C01A0913D01B0913E0143
:1003200026B5A89B05C02F3F19F00196A11DB11D50
:100330003FBFBA2FA92F982F8827BC01CD01620F8C
:10034000711D811D911D42E0660F771F881F991F47
:100350004A95D1F708954F925F926F927F929F9244
:10036000AF92BF92CF92DF92EF92FF920F931F93C3
:10037000CF93DF9300D01F92CDB7DEB7D82E8091F8
:10038000F3049091F404A091F504B091F604892B44
:100390008A2B8B2BD9F00E9486010091EC041091DE
:1003A000ED042091EE043091EF04601B710B820B81
:1003B000930B0091F3041091F4042091F504309113
:1003C000F6046017710782079307C8F20E9486013E
:1003D0006093EC047093ED048093EE049093EF042B
:1003E000E091FB04F091FC04309759F04091F70440
:1003F0005091F8046091F9047091FA048D2D0995DB
:10040000D82EE090EA04F090EB044D2C512C712C86
:10041000612CE114F10409F459C0D7011C96CC9069
:100420001C978091F1049091F2048436910510F4A8
:100430001C961C92D701ED91FC91A280B380198289
:100440001A821B82DD2079F1F701369610E000E078
:100450002191222319F19280992001F130E050E09E
:1004600040E02F5F3F4F4F4F5F4FC301B2010E94EB
:10047000FC089B01AC01892D90E0B0E0A0E0BC013C
:10048000CD016F5F7F4F8F4F9F4F0E94FC08A1E00F
:10049000B0E0AC0FBD1FA00FB11F8C930F5F1F4FBB
:1004A00003301105A9F609811A812B81F7014585D1
:1004B000568562817381C701F5010995D7011C96A4
:1004C000CC921C971496ED90FC90A3CF8091E804F9
:1004D0009091E9049C012F5F3F4F3093E9042093F2
:1004E000E80449970CF445C08FB7F8942091E004D4
:1004F0003091E1044091E2045091E3048FBFE09118
:10050000E804F091E90488EE93E0E89FB001E99FE8
:10051000700DF89F700D1124072E000C880B990B9D
:10052000C090E404D090E504E090E604F090E70485
:100530002C193D094E095F090E9420093093F204ED
:100540002093F1041092E9041092E8042FB7F89474
:100550008091E0049091E104A091E204B091E30461
:100560002FBF8093E4049093E504A093E604B09336
:10057000E7040F900F900F90DF91CF911F910F9193
:10058000FF90EF90DF90CF90BF90AF909F907F90C3
:100590006F905F904F9008958F929F92AF92BF920D
:1005A000CF92DF92EF92FF924B015C010E94860195
:1005B0006B017C010E9486016C197D098E099F09DF
:1005C000683E734081059105A8F321E0821A9108E5
:1005D000A108B10888EEC80E83E0D81EE11CF11C0A
:1005E00081149104A104B10429F7FF90EF90DF90EA
:1005F000CF90BF90AF909F908F9008950F931F93CF
:10060000CF93DF93209139012F5F322F37703093D2
:10061000390120FF2BC020E831FD2064347009F03F
:100620002062205FFC01EC01239600E011E064856C
:10063000662329F070E0C8010E940C096F5F618792
:10064000322F369F030E30E0311D1124311110C0BE
:100650001682662311F0615061873196EC17FD0711
:1006600031F7DF91CF911F910F91089520E0D4CF02
:1006700031503683EECF4F925F926F927F928F927E
:10068000AF92BF92CF92DF92EF920F931F93CF93CF
:10069000DF933C01EB010E948601F301278530893D
:1006A000621B730B6A307105B0F3F894E881F9812D
:1006B0007BB174606BB16B7F6BB9CA848F812C2D59
:1006C000281B822F2F83BF844A805B801D850C8569
:1006D000DE841F5F0F5FD3949E813885A984EB84ED
:1006E0004181D20120E0C32F522F322F3181442784
:1006F00088943111380F08F43FEF8195889410FDEC
:10070000430F4795889411FD430F4795889412FD38
:10071000430F4795889413FD430F4795889414FD24
:10072000430F4795889415FD430F4795889416FD10
:10073000430F4795889417FD430F47958894232FBF
:100740001111242F8C0D422F002C7BB900C000C04A
:1007500047FF6BB930812227889400C0002C6BB909
:100760003111390F00C0002C7BB900C000C046FF1A
:100770006BB908F43FEF9195889400C0002C6BB9D9
:1007800000FD230F00C0002C7BB900C000C045FF56
:100790006BB92795889401FD230F00C0002C6BB91D
:1007A0002795889400C0002C7BB900C000C044FF8E
:1007B0006BB902FD230F2795889400C0002C6BB9FC
:1007C00003FD230F00C0002C7BB900C000C043FF15
:1007D0006BB92795889404FD230F00C0002C6BB9DA
:1007E0002795889400C0002C7BB900C000C042FF50
:1007F0006BB905FD230F2795889400C0002C6BB9B9
:1008000006FD230F00C0002C7BB900C000C041FFD3
:100810006BB92795889407FD230F00C0002C6BB996
:100820002795889400C0002C7BB900C000C040FF11
:100830006BB9432F0111422F9A0D00C0002C6BB9E8
:1008400000C000C0002C7BB900C000C047FF6BB9DE
:1008500032812227889400C0002C6BB931113C0FE3
:1008600000C0002C7BB900C000C046FF6BB908F483
:100870003FEFEB0DF11D00C0002C6BB9D0FC230F36
:1008800000C0002C7BB900C000C045FF6BB92795A4
:100890008894D1FC230F00C0002C6BB92795889455
:1008A00000C0002C7BB900C000C044FF6BB9D2FC73
:1008B000230F2795889400C0002C6BB9D3FC230F1D
:1008C00000C0002C7BB900C000C043FF6BB9279566
:1008D0008894D4FC230F00C0002C6BB92795889412
:1008E00000C0002C7BB900C000C042FF6BB9D5FC32
:1008F000230F2795889400C0002C6BB9D6FC230FDA
:1009000000C0002C7BB900C000C041FF6BB9279527
:100910008894D7FC230F00C0002C6BB927958894CE
:1009200000C0002C7BB900C000C040FF6BB9432F52
:10093000D110422FC19500C0002C6BB9CE0D00C064
:1009400000C07BB900C000C047FF6BB931812227CE
:10095000889400C0002C6BB93111380F00C0002CF6
:100960007BB900C000C046FF6BB908F43FEF81952A
:10097000889400C0002C6BB910FD230F00C0002C20
:100980007BB900C000C045FF6BB92795889411FD65
:10099000230F00C0002C6BB92795889400C0002C51
:1009A0007BB900C000C044FF6BB912FD230F27952F
:1009B000889400C0002C6BB913FD230F00C0002CDD
:1009C0007BB900C000C043FF6BB92795889414FD24
:1009D000230F00C0002C6BB92795889400C0002C11
:1009E0007BB900C000C042FF6BB915FD230F2795EE
:1009F000889400C0002C6BB916FD230F00C0002C9A
:100A00007BB900C000C041FF6BB92795889417FDE2
:100A1000230F00C0002C6BB92795889400C0002CD0
:100A20007BB900C000C040FF6BB9432F1111422FAA
:100A30008C0D00C0002C6BB9119709F086CE20EE0A
:100A400031E0D2010E944209DC01CB01F4E0B6950D
:100A5000A79597958795FA95D1F730E020E0B901F1
:100A6000EAE94E9E040C611D5E9E600D711D11240D
:100A7000650D711D860F971FA11DB11D893E43E0B5
:100A80009407A105B10508F434C0885E9340A1091C
:100A9000B10942E0B695A795979587954A95D1F704
:100AA00047E0849F080E211D949F200D311D1124C5
:100AB000290F311D6091380170E0860F971F820F5A
:100AC000931F4091E0045091E1046091E204709121
:100AD000E304292F3327420F531F611D711D4093DB
:100AE000E0045093E1046093E2047093E304809384
:100AF000380178940E948601F301708B6787DF913B
:100B0000CF911F910F91EF90DF90CF90BF90AF905A
:100B10008F907F906F905F904F900895529A0895B4
:100B2000EF92FF920F931F93CF93DF93CDB7DEB772
:100B300062970FB6F894DEBF0FBECDBF7C01DC011B
:100B40001C968C917A8369835C834B835E834D838F
:100B50000D871E872F87813001F5CE0101960E94F7
:100B6000FE0283E0888B1A8A198AD701ED91FC91E5
:100B70000484F585E02DBE016F5F7F4FC7010995A5
:100B800062960FB6F894DEBF0FBECDBFDF91CF9156
:100B90001F910F91FF90EF9008951C861B861A8677
:100BA000198618861F82DDCFEF92FF920F931F9355
:100BB000CF93DF93CDB7DEB762970FB6F894DEBF61
:100BC0000FBECDBF7C01DC011C968C917A836983BA
:100BD0005C834B835E834D830D871E872F87813017
:100BE000F9F4CE0101960E94FE02188A1A8A198A27
:100BF000D701ED91FC910484F585E02DBE016F5F76
:100C00007F4FC701099562960FB6F894DEBF0FBEFD
:100C1000CDBFDF91CF911F910F91FF90EF9008957D
:100C20001C861B861A86198618861F82DECF90E0E6
:100C300080E00895FC018585968508950F931F93A4
:100C4000CF93DF9300D01F92CDB7DEB7AB011982EF
:100C50001A821B82DC01ED91FC910190F081E02D64
:100C600000E010E020E0BE016F5F7F4F09950F901C
:100C70000F900F90DF91CF911F910F9108950E94D7
:100C8000F7081F920F920FB60F9211242F933F93E4
:100C90004F935F936F937F938F939F93AF93BF9384
:100CA000EF93FF938DEF94E00E94BA00FF91EF91D4
:100CB000BF91AF919F918F917F916F915F914F9174
:100CC0003F912F910F900FBE0F901F9018951F927C
:100CD0000F920FB60F9211242F938F939F93EF9340
:100CE000FF93E0910D05F0910E058081E0911305D1
:100CF000F091140582FD1BC09081809116058F5FD5
:100D00008F7320911705821741F0E0911605F0E0EE
:100D1000E350FB4F958F80931605FF91EF919F91C4
:100D20008F912F910F900FBE0F901F90189580817B
:100D3000F4CF1F920F920FB60F9211242F933F936F
:100D40008F939F93AF93BF938091E0049091E104C0
:100D5000A091E204B091E30430913A0123E0230F23
:100D60002D3758F50196A11DB11D20933A018093AE
:100D7000E0049093E104A093E204B093E304809133
:100D80003B0190913C01A0913D01B0913E01019643
:100D9000A11DB11D80933B0190933C01A0933D01A7
:100DA000B0933E01BF91AF919F918F913F912F9151
:100DB0000F900FBE0F901F90189526E8230F0296F4
:100DC000A11DB11DD2CFE0EFF4E08FEF808312823E
:100DD0001182148613868FEF9FEFDC018783908743
:100DE000A187B287EDEFF4E01382128288EE93E0E0
:100DF000A0E0B0E084839583A683B78386E291E088
:100E00009183808385EC90E09587848784EC90E0E3
:100E10009787868780EC90E0918B808B81EC90E0C7
:100E2000938B828B82EC90E0958B848B86EC90E0A8
:100E3000978B868B118E128E138E148E0895CF93FE
:100E4000DF93CDB7DEB7A1970FB6F894DEBF0FBE24
:100E5000CDBF789484B5826084BD84B5816084BD43
:100E600085B5826085BD85B5816085BD80916E0048
:100E7000816080936E001092810080918100826079
:100E800080938100809181008160809381008091B6
:100E900080008160809380008091B10084608093A5
:100EA000B1008091B00081608093B00080917A00A1
:100EB000846080937A0080917A00826080937A00C7
:100EC00080917A00816080937A0080917A008068B6
:100ED00080937A001092C10068EB7BE080E090E0A4
:100EE0000E94CC0280915201811145C010924401B0
:100EF000109243018FEF80934701809348018093C4
:100F0000490180934A0180934B0180934C0181E019
:100F100080934D0110924F0110924E0110924601A4
:100F2000109245018091EA049091EB04892B31F4F1
:100F300081E491E09093EB048093EA04E0913F0117
:100F4000F0914001309721F081E491E09583848312
:100F500081E491E09093400180933F011092510110
:100F60001092500184E191E09093420180934101FD
:100F700081E080935201529A8AE591E09093440176
:100F8000809343018CE291E090934F0180934E0156
:100F90008091F3049091F404A091F504B091F604CB
:100FA000843C29E09207A105B10520F484EC99E086
:100FB000A0E0B0E08093F3049093F404A093F504D0
:100FC000B093F6048FEF8093470180EB8093480144
:100FD00080EF8093490186E98093F004EEE9F0E028
:100FE0002491EAE8F0E084918823C9F090E0880F2A
:100FF000991FFC01EE58FF4F45915491FC01E859AF
:10100000FF4FA591B4919FB7F894FA018081209584
:10101000822380838C91E22FE823EC939FBF9AE098
:10102000892E912CA12CB12C2BEA222E36E5332EC1
:101030004EEDE42E44E0F42E50E0C52E50E0D52EC7
:101040008091F0040E94AB018FB7F8944090E004C7
:101050005090E1046090E2047090E3048FBF61E07F
:1010600070E080E090E00E94CC028091F0040E9449
:10107000AB012FB7F8948091E0049091E104A09126
:10108000E204B091E3042FBF84199509A609B709BA
:101090000897A105B10518F3F0E4F0937C00809166
:1010A0007A00806480937A0080917A0086FDFCCF7C
:1010B0008091780020917900322F282F359527953F
:1010C000359527953093DF042093DE0450E040E00F
:1010D00019A28E010F5D1F4FCA01B901A50194012C
:1010E0000E942009605DF80162938F01211531058E
:1010F0004105510589F7309761F001900020E9F72B
:101100003197AF01401B510BB8018DEF94E00E9465
:10111000590142E050E064E371E08DEF94E00E94F9
:1011200059015091DE0428E635E5239F020E20E0A8
:10113000211D112485E5820F90E0222D49EA249F8C
:10114000020E20E0211D882331F0382F349F030E3A
:1011500030E0311D832F1124332D339F030E30E0F7
:10116000311D1124432F922F930F830F5F3F09F4FA
:1011700022C020E0552321F0559F212D09F02F5F3B
:10118000222309F42DC0992331F0592F529F050EC7
:1011900050E0511D952F882331F0582F529F050E96
:1011A00050E0511D852F332329F0329F030E30E08C
:1011B000311D432F1124EAE5F1E0908381834283BE
:1011C0003396EE16FF06C9F7C114D10409F438CFDF
:1011D0000E944201882309F433CF0E94000030CFDF
:1011E00040E080E090E0E7CFF8940C947D0981E046
:1011F00090E0F8940C947D09DB018F939F930E94FB
:101200004909BF91AF91A29F800D911DA39F900DA1
:10121000B29F900D1124089597FB072E16F40094A9
:1012200007D077FD09D00E94540907FC05D03EF491
:10123000909581959F4F0895709561957F4F089582
:10124000A1E21A2EAA1BBB1BFD010DC0AA1FBB1FCA
:10125000EE1FFF1FA217B307E407F50720F0A21B3C
:10126000B30BE40BF50B661F771F881F991F1A94A9
:1012700069F760957095809590959B01AC01BD01D3
:10128000CF0108950E946E09B7FF0895821B930B4A
:1012900008950E946E09A59F900DB49F900DA49F84
:1012A000800D911D11240895AA1BBB1B51E107C09D
:1012B000AA1FBB1FA617B70710F0A61BB70B881FE6
:1012C000991F5A95A9F780959095BC01CD01089575
:1012D000EE0FFF1F0590F491E02D0994A29FB0013D
:1012E000B39FC001A39F700D811D1124911DB29F5A
:0E12F000700D811D1124911D0895F894FFCFFB
:1012FE00000000003F063F063F061E061A061706B0
:10130E0000000000D40590058E051E061A06560133
:10131E003B0300000000DB0059017D002201AE00FE
:08132E008C00A0000D0A000074
:00000001FF
